:100000006F00B07E00000000240A0000280A0000F3
:1000100000000000000000000000000000000000E0
:1000200000000000000000000000000000000000D0
:100030006207000000000000BA0F0000000000008E
:10004000BC0F0000BE0F0000C00F0000C20F000078
:1000500004080000C60F0000C80F0000CA0F00000F
:10006000CC0F0000CE0F0000D00F0000D20F000018
:10007000D40F0000D60F0000D80F0000DA0F0000E8
:10008000DC0F0000DE0F0000E00F00000A0500009A
:10009000E40F0000A2050000B00500000000000011
:1000A000511126C022C206C4828282441244A24058
:1000B000310182802A86014593F6150091C232955E
:1000C00085810606F5F9828000000000634E050276
:1000D00063C305042E86AA857D5515C285466378BF
:1000E000B6006356C00006068606E36CB6FE014500
:1000F00063E4C500918D558D85820582F5FA828075
:100100008682C93F2E8582823305A04063D70500D1
:10011000B305B040C1B7B305B0408682653F330533
:10012000A0408282868263C70500634905005D376F
:100130002E858282B305B040E35B05FE3305A04007
:10014000513F3305B04082820000EFF27FF58545D4
:100150000145EF10202A85450545EF10A02985456A
:100160000945EF10202991B7EFF29FF38145014532
:10017000EF10603781450545EF10E03681450945B0
:10018000EF106036014495450945FD218145635DC9
:10019000A4040145EF10203585450545EF10A03436
:1001A00081450945EF1020341545EF10003E81458B
:1001B0000545EF1040331305F00AEF10003D85456B
:1001C0000945EF10403281450545EF10C031154516
:1001D000EF10A03B81450945EF10E0301305F00A10
:1001E000EF10A03A050445B70545EF10C02F814533
:1001F0000945EF10402F81450145EF10C02E9305B2
:10020000007D1305803E8D29EF10203879BD014512
:10021000828082807D558280EFF29FE81C417111BF
:10022000CC81DC4393053100054682971101B5BDB1
:10023000EFF21FE77111930531004105EF10001730
:1002400001E58881110195B57D55EDBFEFF25FE5C0
:100250002E85B285EF10800589BD13F7F50FC547D0
:1002600063EDE70089679387C7B80A073E9793F75E
:1002700005700C43CD8F5CD5828093F6050C130678
:10028000000CFD57E399C6FE9306700CE3E5E6FE0D
:1002900093F7F50309671307C7B68A07BA979C4314
:1002A00009671307C7B88A07BA9793F505709C4387
:1002B000D1B713F7F50FC54763EDE700896793875B
:1002C000C7B80A073E9793F705700C43CD8F1CD52E
:1002D000828093F6050C1306000CFD57E399C6FEC9
:1002E0009306700CE3E5E6FE93F7F5030967130741
:1002F000C7B68A07BA979C4309671307C7B88A0726
:10030000BA9793F505709C43D1B7EFF27FD9930765
:10031000803E1CC589679387C7BD1CC10CC92322B9
:1003200005009305600C2A840D3F9305500C22852F
:10033000493758541C546314F700FD575CD4FD57DB
:100340001CD85CD89DB3EFF2BFD5B745014093856B
:10035000058013854183553F89BBEFF27FD41C454F
:100360002A8481CB0D46AA85829723240400232664
:10037000040022851DBB1C4599C7EFF27FD2AA85D8
:100380000D4682971DB38280B7370140938707C01F
:100390006308F500B70700406316F5000545828045
:1003A0000145828041657D158280EFF27FCF2A84EE
:1003B000084DD93FAA8413058401EF00304F8A0409
:1003C000138501812695232A0400930444082320E1
:1003D00005001304440363868400C1142685613F2D
:1003E000DDBFE1B1EFF2DFCB71112A84C1642E854C
:1003F0002EC0FD14513F82456313950001A01C4C93
:1004000091C301A093172500138501813E959307A1
:1004100044011CC1930700085CD4930700041CD856
:100420000CCC1305840140C8232E040023200402B1
:1004300023120402EF00304413054403393F13052F
:100440004404213F13054405093F13054406313791
:10045000130544071937084C232004002322040005
:10046000232404002326040023280400232E040050
:1004700004D08545EF00C06D084C9305C401EF0022
:10048000406811011DB1EFF2BFC1232E05022326E2
:100490000504232E050423260506232E0506232CFA
:1004A00005008937B7E700E0214723A2E7101307CB
:1004B000000223A2E7101307000423A2E710F5B6F9
:1004C000EFF21FBE184519E3EF1000115C4582974B
:1004D000E9BE11E101A0EFF2BFBC2A8408418545C5
:1004E000EF00A06815C11C40DE27858B91CF2285C7
:1004F000EF00303808415C5D81C713054503C937FB
:1005000008408545EF00E0674DB603A5018119C19C
:100510001105C1377300203011E101A01C41DA2719
:10052000098B11EBDA27118B19E7DA27218B01E709
:10053000DA27418B35C7EFF2BFB62A8489453E855D
:100540002D251C400DC189453E85252D85442285DC
:10055000EF003032084192049384440326951C45F1
:1005600091C3B93F99B63E85914501251C4011C5FF
:1005700091453E8539258944D9BF3E85A145F5235E
:100580001C4011C5A1453E85ED2B8D44C9B7C14521
:100590003E85E12B4DDD0840C1459144DD2345BF3B
:1005A000828003A5018119C11105BD377300203078
:1005B000711122C013840181484011C51105113FFA
:1005C00048401105913F0244110173002030EFF2C1
:1005D0003FAD2A84EF00B07A48C41C402285DC4B32
:1005E0008297635A0500EF0090795C441D8D1C448E
:1005F000E365F5FE7D5555BCEFF29FAA6111AA8413
:1006000001442EC232C0630DC4002685C937634938
:10061000050092450246B387850088A30504D5B737
:100620002285210159B4EFF2BFA75111014495C6AB
:10063000B684AA8701443E8532C42EC23EC0413FE3
:10064000634D05009245630AB50022468247330791
:10065000860008A30504E39084FE22853101B1B42D
:1006600019C9EFF2FFA371112AC0EF10801C824557
:10067000553C11011DBC8280EFF29FA22A84635673
:10068000B5003385A540E93F2A9422856FF0FFA18C
:10069000EFF21FA1252A6FF05FA1EFF27FA085473F
:1006A0006301F50219C589476303F50201456FF03F
:1006B000DF9F114585450129371501401305058048
:1006C000FDB741458545012137150140CDB71305DB
:1006D00000028545CD2E3715014013050540C1BFE9
:1006E000EFF21F9C896651119385C6A72AC0EF00BF
:1006F000100A59391317250093840181BA948C404C
:1007000013840181024685E589669385C6A73285F3
:100710003AC4EF00D0072AC213054008EF00F06882
:1007200092452AC08D339C408246224794C3B3072A
:10073000E4009C43804301C8228585399305400825
:100740002285EF00D06831016FF03F9603A58181CB
:1007500083A5C18182808280EFF29F94C53F6FF0B4
:10076000DF949387818103A3070083A347001307C6
:1007700013003335670098C3B3067500D4C3E13F57
:10078000B7F700E023A2070073002030EFF25F917B
:1007900037F400E023220400232004002324040073
:1007A000B707002003A547109305803EEFF09F9206
:1007B0007D1508C8BD471CC07D57B7E700E02386FC
:1007C000E740056723A0E7106FF03F8EEFF25F8DE3
:1007D000753F6FF09F8D814705476307E5008507EB
:1007E000058193F7F70FD5BF370700208E07130752
:1007F000C700BA97DC4391C7EFF29F8A82976FF0E8
:10080000DF8A8280611122C226C00544A14422856C
:10081000A92019C522858D20131504014181653F4A
:10082000FD140604EDF412448244210173002030CB
:1008300037070020130707101C43938681913E95CC
:100840006369D500938601D463E5A60008C33E859D
:100850008280FD57EDBF82808280B70701401387F9
:10086000074083A70740584B698F09C77D8D3335F3
:10087000A000828001458280B707014023AAA740DB
:1008800082809C45611122C226C013F7070113F331
:10089000F70001C7D8413363E30092211377F60FC5
:1008A00029C78323050001471304800293048004B1
:1008B0008546B395E600B376B6006392D5029312EF
:1008C0002700BD46B396560093C6F6FFB3F37600F5
:1008D000B3125300B3E37200639787064CC9050750
:1008E000A146E317D7FC232075001307F00F6378A8
:1008F000C70483234500A1461304800293048004A7
:100900000547B312D700337756006394E20213977A
:1009100026000117BD45B395E50093C5F5FFB3F378
:1009200075003317E300B363770063928702232ACD
:10093000550085064147E395E6FC232275001244E5
:10094000824421018280E39C97F80CC949BFE3925D
:1009500097FE23285500F1BF0CC982804CC98280C4
:1009600037030140032743009317350063D0070284
:10097000B707C0FFF517F98F37070007D98FD9CD13
:10098000370700F07D17798DC98F49A8635D050091
:10099000B707E0FFED17F98F37070007D98FBDCDF7
:1009A00006050581D5B7B7073000931605013376E4
:1009B000F500C1826313F602370600F97D16B3779E
:1009C000C70003274300798E2322C300A1C95581A4
:1009D000131745003395E60045BF9317B50063D460
:1009E00007029357050113F6F7008D47B397C70029
:1009F00093C7F7FFF98F37070007D98F85C11357C2
:100A000055011207C1BF558112053395A6009347C2
:100A1000F5FFF98F37070007D98FBDF5370701407C
:100A20005CC382807300203001A0EFF26FE73717BC
:100A300002405C4391462A84B18B6385D700A1466E
:100A4000638DD706B7376E01938707601CC0B71652
:100A50000240DC42918313F7F700B7070020938729
:100A60000706BA978C23DC42184093F5F50F93F7ED
:100A700007083355B70081E73A85EFF0AFE548C086
:100A800008C448C4B7170240DC43AD83FD8B13D7BD
:100A900037008A07F18BD98F93F637010D476373BF
:100AA000D700D117370700201307C704BA978C2344
:100AB000EFF04FE208C86FF04FDF5C43B777DC021E
:100AC000938707C061B799C5371702401C4F5D8DEA
:100AD00008CF8280B7170240984F1345F5FF798DF4
:100AE00088CF828099C5371702405C4F5D8D48CF13
:100AF0008280B7170240D84F1345F5FF798DC8CFD4
:100B000082801E2137370140130707C0C207C18307
:100B10006306E500370700406316E500BA2193F746
:100B2000F7F8D98FFA2193F7F7CFC207C183D98F8E
:100B30001EA1DE215EB59E211EB5B7370140938709
:100B400007C06314F5009C251EB985475EA9828005
:100B50001E2189C593E707081EA18280C207C183B1
:100B600093F7F7F7C207C183C5BF1E294A25ED8F4A
:100B70004205418189C76D8D3335A00082800145D2
:100B8000828093C5F5FFC205C1810EA98280EFF274
:100B90002FD11629F577FD17F58FF621DA252111CA
:100BA000D58F1EA95625FD779387379FF58FD621C0
:100BB0002A842EC0D58F9625D58FB625D58F5EA5D4
:100BC0005E29C207C18393F7F7CF5D8F5AA948000A
:100BD000A93DB74701409387078082456312F40619
:100BE000C2475A24139517003E9542070E054187C8
:100BF0003E958C41635807048605EFF0AFCD930511
:100C000040062AC0EFF00FCD8247931445009305AC
:100C100040063E85EFF0CFCE5E24C207C18763D584
:100C200007020E059305400613052503EFF08FCA52
:100C30001D89C98CC204C18006A461016FF0EFC692
:100C4000B24745B78A0555BF1205930540061305FF
:100C50002503EFF02FC83D89E9BF91C55E250967DF
:100C6000D98F5EA582805A25F977FD17F98FD5BFF8
:100C700093F5F51F4EA182804A211375F51F8280DE
:100C80005E2989C593E787005EA98280C207C18378
:100C9000DD9BC207C183CDBF0A216D8D3335A00016
:100CA0008280B71702409843B706FFFC61111367B3
:100CB000170098C3D8432166758FD8C39843B706E9
:100CC000F7FEFD16758F98C39843B706FCFFFD1617
:100CD000758F98C3D843C176FD16758FD8C3370773
:100CE0009F0098C702C002C2984FB7060140136721
:100CF000170098CFD842518FD8C29843C1663706A3
:100D00000200558F98C3B716024009679C42F18FC5
:100D10003EC2824785073EC0924781E78247E397FC
:100D2000E7FEB71702409C431397E7006358070696
:100D300085473EC2124785476310F706B727024032
:100D40009843C176FD16719B98C3984313671700AB
:100D500098C3B7170240D843D8C3D843758FD8C3B8
:100D6000D843C166558FD8C39843B7060001558F45
:100D700098C3984393166700E3DD06FED843B71681
:100D80000240719BD8C3D84313672700D8C32147BB
:100D9000DC42B18BE39EE7FE2101828002C259BF93
:100DA000FD577D576317F500014582806387A700D3
:100DB000B1059C41E39CE7FEC5BF05458280EFF28B
:100DC0002FAE311102C402C602C8FD576313F500ED
:100DD00001A093D7854093F4F7079377F500139715
:100DE000270089679387C7C6BA979C4311813D89BD
:100DF0002E843EC0EFF07F8A2AC29DC085450545FE
:100E0000D9319387F4FF6947636CF70009678A0754
:100E1000130707C0BA979C438287854505458936E5
:100E200093572440137734008D8B7DC73AC609470A
:100E30006380E70E0D47638FE70C05476388E70C77
:100E4000C1473EC8EDA08145D1BF8545370500109B
:100E50000905F1B7854537054010DDBF8145E5BF80
:100E600085453705008011055DBF85453705208024
:100E70007DB7854537052080FDB78145E5BF37053E
:100E8000160085451305050459BF8545370516002D
:100E90001305050869B78545370516001305050CC8
:100EA000BDBF8145D5BF3705180085451305051021
:100EB000BDB7370518008545130505208DB7854555
:100EC000370518001305053099BF8145D5BF854505
:100ED0002165B1B78145EDBF8545370520008DBF40
:100EE0008145E5BF854537052000B5BF8145E5BF94
:100EF00085453705200069BF8145E5BF8545370534
:100F000030001305054021BF8145D5BFD14715BF2E
:100F1000E14705BFF14735B705476383E70299C746
:100F200089466381D7029307800221BF02C88247A6
:100F300012452C007C84EFF0DF9451016FF0EF96A6
:100F4000914701B711840D8893078004E31DE4FCE9
:100F5000CDBDFD577D57631CF50082806398A700C7
:100F6000EFF20F948C45A13D6FF02F94B1059C4199
:100F7000E396E7FE01A07D579C416394E70001459D
:100F800082806394A700C8418280B105F5B7FD5700
:100F90006307F500EFF2CF90F93F6FF00F91014535
:100FA00082806305B50019C181E5AA852E858280FE
:100FB0008145EDBF01A001A001A001A001A001A0F9
:100FC00001A001A001A001A001A001A001A001A019
:100FD00001A001A001A001A001A001A001A001A009
:100FE00001A001A001A001A001A097010020938110
:100FF0006191138101F017150000130525D297F5B3
:10100000FF1F938525001386018163FAC5008322A3
:10101000050023A0550011059105E3EAC5FE1385DF
:101020000181938581916377B50023200500110527
:10103000E36DB5FE93020008739002308D42739009
:10104000428097F2FFFF9382E2FB93E232007390BB
:101050005230170500001305455A492BD12BEFF0EC
:101060005FC49702000093820238739012347300B9
:10107000203071158280EFF2AF821841B7370140FE
:10108000938707C02A846318F70005658545130513
:101090000580EFF05FA31840B70700406316F70024
:1010A00085450545EFF01FA46FF02F80EFE25FFF4D
:1010B0001841B7370140938707C02A846318F700A7
:1010C0000565814513050580EFF0FF9F1840B707C0
:1010D00000406316F70081450545EFF0BFA06FE0C3
:1010E000DFFCEFE2FFFB1301C1FDAA84084D32C60D
:1010F00009662EC4930546B53ACA36C8493D2AD07A
:10110000C84C89669385C6B359352A848850896549
:10111000938545B2AD3D2AC0C85089659385C5B059
:10112000BD350257096689662AC232CC36CE6304C1
:10113000070ED04CFD566304D600630E040C90508D
:10114000FD566305D60082476387070CD050FD56D5
:101150006305D60092476380070C3A85A2859135D6
:10116000824588C03D3D924588C0253D88C045C523
:101170003747014013070780631BE500854511656C
:10118000EFF07F94130700022386040298D4E2470D
:10119000884C938547B5753B11C4F247C84C93857D
:1011A000C7B3453B8247814681CB8850896593858B
:1011B00045B2453393060010924791CBC8508965DC
:1011C00093E606209385C5B036C061338246A247B8
:1011D00003C7C40288409CC4B24713162700DEA48C
:1011E000D247138701823297FEA4C2471386440078
:1011F00010C33147C8C09EA8BAA8D6A801E4854547
:10120000EFF01FA8C84093858400EFF05F98C840B6
:101210008545EFF09FA4130141026FE01FE9EFE263
:101220003FE8896783A707B809671307C7B88A0724
:10123000BA9780438965938545B52285893B19CD49
:1012400037050020F16593070507014781460146F0
:10125000938505201305050780CF61356FE0FFE416
:10126000EFE21FE48347C5029305000213972700AE
:1012700093870182BA979C438843EFF0FFA113350F
:1012800015006FE09FE2EFE2BFE18347C5029305DF
:1012900000041397270093870182BA979C438843E1
:1012A000EFF09F9F133515006FE03FE0EFE25FDF47
:1012B000411137040020AA842EC2EFF02FC99307F2
:1012C000040783C7C7022AC41304040785E703473A
:1012D000C402938701820A07BA979C43F1173EC064
:1012E000938701823EC68247C9EB02C21245410183
:1012F0006FE0BFDB896783A707B809671307C7B823
:101300008A07BA979C438966938546B53E853EC059
:10131000BD39896679D923060402138701821C43EB
:1013200091EF8347C402850793F7F70F2306F40272
:10133000FDD7F5358347C402D9DB45BF0245938508
:1013400046B5B1310346C4021387018293172600C4
:10135000BA979C4389669C43E395A7FC2DDAD1BFDD
:10136000EFF0CFBEA247B307F5403335F500E39E5B
:10137000A5F61307703EE36AF7F6024529376DF1CB
:101380009247A6973EC4A247E382F4F60245E53DA4
:1013900075FD8347C402324785048A07BA979C4388
:1013A00083C5F4FF8843EFF0BF8CF1BF11E57D5595
:1013B00082807D556FE07FCFEFE29FCEAA842E849E
:1013C000453565F983C7C4021397270093870182C7
:1013D000BA979C438843EFF03F8A08A00145D9BFE4
:1013E0008280EFE2FFCBEFF0AFAAEFE01FD6EFE095
:1013F000BFD7F5BF9377F50F45476366F7080967D1
:101400008A071307C7B83E97184393770570D98F9B
:101410007D576389E70CEFE2BFC813D42700138719
:10142000C1871374C4032297184393F4F700511132
:10143000335797009386C1872EC0058B36C205CBE4
:1014400089653E859385C5A73EC4EFF07F95A24789
:1014500009C53E85EFF0CFA8A24712473A94054749
:10146000B3149700184093C4F4FFF98C04C082466B
:1014700015476368D70609671307C7C89395260001
:10148000BA95984102871377050C9306000C631BED
:10149000D7041307700C6367F7049377F5030967A4
:1014A0001307C7B68A07BA979C4309671307C7B8DB
:1014B0008A07BA979C4313750570C98F91BF9145F0
:1014C0003E85EFF0DF8F31016FE03FBE8D45CDBF30
:1014D000E145FDB793058002E5B78145D5B79D4548
:1014E000C5B701A08280EFE2BFBB1377F50FC547F8
:1014F000AE8663E6E70489679387C7B80A073E9715
:10150000184313750570B367E50013D747003D8B8B
:10151000094601456369E600370600200A071306FD
:101520000600329708438545BD8BB397F500939528
:101530000701C181B1C2EFF02FC26FE01FB7137670
:10154000050C9305000CFD57E311B6FC1306700C57
:10155000E36DE6FA9377F50309671307C7B68A07C1
:10156000BA979C4309671307C7B88A07BA979C4381
:1015700013750570C98F51BFEFF04FBE7DBFEFE20D
:101580003FB2EFF06F9D6FE05FB219CDEFE25FB158
:101590002A84EFF06F9CAA84A135EFF0EF9B058DB4
:1015A000E36C85FE6FE07FB08280511122C206C4D9
:1015B0002A8411E105442285FD2011E5112811E15D
:1015C00005200295CDBFA24012443101828001A8BE
:1015D0009387418288438280511106C41120C9A893
:1015E0005111194506C4992605454129AA85814608
:1015F00001460145BDA65111970700009387077268
:1016000022C217040000130464711D8C26C006C496
:101610000984BE8419E41244A240824431016FF06F
:101620008FA37D1493172400A6979C438297DDB760
:10163000511122C2970700009387C76D170400005D
:101640001304446D1D8C26C006C40984814463962E
:101650008402EFF06FA0970700009387A76B170431
:1016600000001304A46B1D8C0984814463928402DE
:10167000A2401244824431018280139724003E9795
:10168000184385040297970700009387A768C1B79E
:10169000139724003E97184385040297970700008C
:1016A00093874767E1B793878180AA85884345A8D8
:1016B00093878180AA85884309A0CDC183A7C5FFF0
:1016C000511122C206C426C01384C5FF63D307008C
:1016D0003E94AA840526938781829C4399EB23221A
:1016E000040023A481821244A24026858244310151
:1016F00019A6637EF40014403307D4006396E70014
:101700009843DC43369718C05CC0E1BFBA87D84322
:1017100019C3E37DE4FE94433386D700631F86003C
:101720001040B29694C33386D700E31EC7FA104325
:101730005843B29694C3D8C37DB76375C400B1470C
:101740009CC055B71040B306C4006316D7001443BD
:101750005843B29614C058C0C0C371B782804111BB
:1017600026C293843500F19806C622C4A104B1476D
:1017700063F5F404B14463E4B4042AC0A52C1387D0
:10178000818214438247368439E01387C18218432B
:1017900001EB3E8581453EC0212223A6A1828247DE
:1017A0003E85A6853EC0ED287D5782476314E50639
:1017B000314798C33E85812429A0E3DE04FAB1476E
:1017C0001CC10145B240224492444101828018402C
:1017D000058F634E07022D466376E60018C03A94E3
:1017E00004C031A058406392860223A4E1823E8562
:1017F00019241305B400130744006199B307E540A9
:10180000F1D33E94098F18C075BFD8C2CDB7A28658
:1018100040409DBF130435007198E30385FCB30578
:10182000A4403E853EC0AD287D578247E31AE5FAC5
:1018300041B751119387818022C2804306C41C5C4A
:101840008DEB61458D35B737CDAB08DC9387E7303D
:101850001CC1B7176DE6938747235CC1B7E7050046
:101860009387C7EE1CC5AD475EA50547814718C9DC
:101870005CC9005C97070000938747439043084882
:101880004C48D443952A9307150033B5A7002E95ED
:1018900048C81CC8A2401244060505813101828057
:1018A000511122C22A842E8523AA019006C4EFE09A
:1018B0003FF8FD576317F500938741919C4391C30F
:1018C0001CC0A240124431018280FD4763F6B7007C
:1018D000D9471CC17D5582807C41411122C406C676
:1018E0002E862A8491C713972500BA97984319EB3F
:1018F000228532C0B520AA85228522440246B24004
:10190000410115A8854601456308D700FD566319B6
:10191000D700D9471CC00545B2402244410182800E
:101920002E8523A0070002970145FDB7938781808C
:10193000AA85884359BF511122C22A842E85B285B7
:1019400023AA019006C42522FD576317F50093874B
:1019500041919C4391C31CC0A2401244310182803A
:1019600009A2938701839C43AA8399EF13878188F7
:1019700023A8E18217E5FFFF1305C568BA8709C5EB
:101980001C4123A8F190BA87D8437D437D55634617
:10199000E304638D030203A3870863000304931227
:1019A00027009A9223A0C200032503100546331690
:1019B000E600518D2320A31023A0D2088946639707
:1019C000D30083264310558E2322C310930617009D
:1019D0000A07D4C3BA978CC70145828097E7FFFFF7
:1019E0009387476299C717050000130505C16FF07B
:1019F000FFBF82808280828021112AC236C006CA3F
:101A0000AA8622C826C6328732C4814701450143CF
:101A100033866600937317003304F50093D2F60102
:101A20000583B3346600860763850300338584002D
:101A300032838606B3E7570061FFAA8789C522452E
:101A4000EFE04FE7AA97024711C71245BA85EFE0CA
:101A50006FE6AA97D2404244B2441A85BE8561011E
:101A600082809307800523AAF1907D558280930799
:101A7000800523AAF1907D55828001A024000000FA
:101A8000000000400B910000230000000000004017
:101A90000B11010010000000000000400B9101003C
:101AA00027000000000000400B110200220000008F
:101AB000002C01400B8D000001000000002C0140B3
:101AC0000B0D010013000000002C01400B8D0100E4
:101AD00014000000002C01400B0D0200200000004B
:101AE000002C01400B8D000002000000002C014082
:101AF0000B0D010021000000002C01400B8D0100A6
:101B0000FFFFFFFF000000000000000023000000B6
:101B10000038014018000000FFFFFFFF0000000038
:101B20000000000012000000003801400B0000001F
:101B3000FFFFFFFF00000000000000002600000083
:101B40000038014018000000FFFFFFFF0000000008
:101B50000000000025000000003801400B000000DC
:101B6000FFFFFFFF00000000000000000100000078
:101B700000000000060000000C0000000D00000046
:101B80000F000000100000000E0000000100000027
:101B90000200000010000000110000001200000010
:101BA00013000000140000001500000016000000E3
:101BB00017000000200000002100000022000000AB
:101BC0002300000024000000250000002600000083
:101BD00027000000000000000000000018020000C4
:101BE0004C0200000E02000012020000140200006D
:101BF0003002000014020000F80500002606000074
:101C00001A0E0000460E00004A0E0000540E00009E
:101C10005C0E0000600E00006A0E0000720E0000F4
:101C20007A0E00007E0E00008A0E0000960E000064
:101C3000A20E0000A60E0000B20E0000BE0E0000B4
:101C4000CA0E0000CE0E0000D40E0000D80E000018
:101C5000E00E0000E40E0000EC0E0000F00E0000AC
:101C6000F80E0000FC0E0000080F0000010000004C
:101C70000200000004000000080000001000000046
:101C8000200000004000000080000000BE140000A2
:101C9000CC140000D0140000D4140000DA140000AA
:101CA000DE140000000000002D7F954C2DF45158EB
:101CB0000000000000000000000000000000000024
:101CC0000000000000000000000000000000000014
:101CD0000000000000000000000000000000000004
:101CE00000000000000000000000000000000000F4
:101CF00000000000000000000000000000000000E4
:101D000000000000000000000000000000000000D3
:081D1000DC190000460300008D
:101D180000080140001001400014014014000000B8
:101D28000000000014000000000000001400000083
:101D38000000000014000000000000001400000073
:101D48000000000014000000000000001400000063
:101D58000000000014000000000000000204060853
:101D680004080C1008101820102030402040608013
:101D78000102030405060708010203040506070813
:101D8800000000000000000000000000000000004B
:101D98000000000000000000FFFFFFFFFFFFFFFF43
:101DA800FFFFFFFFFFFFFFFF000000000100000032
:101DB80000000000D01C0000F01C0000B01C000057
:101DC800000000000000000000000000000000000B
:101DD80000000000000000000000000000000000FB
:101DE80000000000000000000000000000000000EB
:101DF80000000000000000000000000000000000DB
:101E080000000000000000000000000000000000CA
:101E180018020020006CDC02A00000200000000076
:00000001FF
